{
  "_format": "hh-sol-artifact-1",
  "contractName": "Verifi",
  "sourceName": "contracts/Verifi.sol",
  "abi": [
    {
      "inputs": [],
      "stateMutability": "nonpayable",
      "type": "constructor"
    },
    {
      "anonymous": false,
      "inputs": [
        {
          "indexed": true,
          "internalType": "address",
          "name": "owner",
          "type": "address"
        },
        {
          "indexed": true,
          "internalType": "address",
          "name": "approved",
          "type": "address"
        },
        {
          "indexed": true,
          "internalType": "uint256",
          "name": "tokenId",
          "type": "uint256"
        }
      ],
      "name": "Approval",
      "type": "event"
    },
    {
      "anonymous": false,
      "inputs": [
        {
          "indexed": true,
          "internalType": "address",
          "name": "owner",
          "type": "address"
        },
        {
          "indexed": true,
          "internalType": "address",
          "name": "operator",
          "type": "address"
        },
        {
          "indexed": false,
          "internalType": "bool",
          "name": "approved",
          "type": "bool"
        }
      ],
      "name": "ApprovalForAll",
      "type": "event"
    },
    {
      "anonymous": false,
      "inputs": [
        {
          "indexed": true,
          "internalType": "address",
          "name": "previousOwner",
          "type": "address"
        },
        {
          "indexed": true,
          "internalType": "address",
          "name": "newOwner",
          "type": "address"
        }
      ],
      "name": "OwnershipTransferred",
      "type": "event"
    },
    {
      "anonymous": false,
      "inputs": [
        {
          "indexed": true,
          "internalType": "address",
          "name": "from",
          "type": "address"
        },
        {
          "indexed": true,
          "internalType": "address",
          "name": "to",
          "type": "address"
        },
        {
          "indexed": true,
          "internalType": "uint256",
          "name": "tokenId",
          "type": "uint256"
        }
      ],
      "name": "Transfer",
      "type": "event"
    },
    {
      "inputs": [
        {
          "internalType": "address",
          "name": "_memberAddress",
          "type": "address"
        }
      ],
      "name": "addBoardMember",
      "outputs": [],
      "stateMutability": "nonpayable",
      "type": "function"
    },
    {
      "inputs": [
        {
          "internalType": "address",
          "name": "to",
          "type": "address"
        },
        {
          "internalType": "uint256",
          "name": "tokenId",
          "type": "uint256"
        }
      ],
      "name": "approve",
      "outputs": [],
      "stateMutability": "nonpayable",
      "type": "function"
    },
    {
      "inputs": [
        {
          "internalType": "address",
          "name": "owner",
          "type": "address"
        }
      ],
      "name": "balanceOf",
      "outputs": [
        {
          "internalType": "uint256",
          "name": "",
          "type": "uint256"
        }
      ],
      "stateMutability": "view",
      "type": "function"
    },
    {
      "inputs": [
        {
          "internalType": "uint256",
          "name": "tokenId",
          "type": "uint256"
        }
      ],
      "name": "getApproved",
      "outputs": [
        {
          "internalType": "address",
          "name": "",
          "type": "address"
        }
      ],
      "stateMutability": "view",
      "type": "function"
    },
    {
      "inputs": [],
      "name": "getBoardMembers",
      "outputs": [
        {
          "internalType": "address[]",
          "name": "",
          "type": "address[]"
        }
      ],
      "stateMutability": "view",
      "type": "function"
    },
    {
      "inputs": [],
      "name": "getCerts",
      "outputs": [
        {
          "components": [
            {
              "internalType": "uint256",
              "name": "certId",
              "type": "uint256"
            },
            {
              "internalType": "address",
              "name": "owner",
              "type": "address"
            },
            {
              "internalType": "address[]",
              "name": "validators",
              "type": "address[]"
            }
          ],
          "internalType": "struct Verifi.Cert[]",
          "name": "",
          "type": "tuple[]"
        }
      ],
      "stateMutability": "view",
      "type": "function"
    },
    {
      "inputs": [
        {
          "internalType": "address",
          "name": "owner",
          "type": "address"
        },
        {
          "internalType": "address",
          "name": "operator",
          "type": "address"
        }
      ],
      "name": "isApprovedForAll",
      "outputs": [
        {
          "internalType": "bool",
          "name": "",
          "type": "bool"
        }
      ],
      "stateMutability": "view",
      "type": "function"
    },
    {
      "inputs": [
        {
          "internalType": "string",
          "name": "_tokenURI",
          "type": "string"
        }
      ],
      "name": "mint",
      "outputs": [
        {
          "internalType": "uint256",
          "name": "",
          "type": "uint256"
        }
      ],
      "stateMutability": "nonpayable",
      "type": "function"
    },
    {
      "inputs": [],
      "name": "name",
      "outputs": [
        {
          "internalType": "string",
          "name": "",
          "type": "string"
        }
      ],
      "stateMutability": "view",
      "type": "function"
    },
    {
      "inputs": [],
      "name": "owner",
      "outputs": [
        {
          "internalType": "address",
          "name": "",
          "type": "address"
        }
      ],
      "stateMutability": "view",
      "type": "function"
    },
    {
      "inputs": [
        {
          "internalType": "uint256",
          "name": "tokenId",
          "type": "uint256"
        }
      ],
      "name": "ownerOf",
      "outputs": [
        {
          "internalType": "address",
          "name": "",
          "type": "address"
        }
      ],
      "stateMutability": "view",
      "type": "function"
    },
    {
      "inputs": [],
      "name": "renounceOwnership",
      "outputs": [],
      "stateMutability": "nonpayable",
      "type": "function"
    },
    {
      "inputs": [
        {
          "internalType": "address",
          "name": "from",
          "type": "address"
        },
        {
          "internalType": "address",
          "name": "to",
          "type": "address"
        },
        {
          "internalType": "uint256",
          "name": "tokenId",
          "type": "uint256"
        }
      ],
      "name": "safeTransferFrom",
      "outputs": [],
      "stateMutability": "nonpayable",
      "type": "function"
    },
    {
      "inputs": [
        {
          "internalType": "address",
          "name": "from",
          "type": "address"
        },
        {
          "internalType": "address",
          "name": "to",
          "type": "address"
        },
        {
          "internalType": "uint256",
          "name": "tokenId",
          "type": "uint256"
        },
        {
          "internalType": "bytes",
          "name": "data",
          "type": "bytes"
        }
      ],
      "name": "safeTransferFrom",
      "outputs": [],
      "stateMutability": "nonpayable",
      "type": "function"
    },
    {
      "inputs": [
        {
          "internalType": "address",
          "name": "operator",
          "type": "address"
        },
        {
          "internalType": "bool",
          "name": "approved",
          "type": "bool"
        }
      ],
      "name": "setApprovalForAll",
      "outputs": [],
      "stateMutability": "nonpayable",
      "type": "function"
    },
    {
      "inputs": [
        {
          "internalType": "bytes4",
          "name": "interfaceId",
          "type": "bytes4"
        }
      ],
      "name": "supportsInterface",
      "outputs": [
        {
          "internalType": "bool",
          "name": "",
          "type": "bool"
        }
      ],
      "stateMutability": "view",
      "type": "function"
    },
    {
      "inputs": [],
      "name": "symbol",
      "outputs": [
        {
          "internalType": "string",
          "name": "",
          "type": "string"
        }
      ],
      "stateMutability": "view",
      "type": "function"
    },
    {
      "inputs": [
        {
          "internalType": "uint256",
          "name": "index",
          "type": "uint256"
        }
      ],
      "name": "tokenByIndex",
      "outputs": [
        {
          "internalType": "uint256",
          "name": "",
          "type": "uint256"
        }
      ],
      "stateMutability": "view",
      "type": "function"
    },
    {
      "inputs": [
        {
          "internalType": "address",
          "name": "owner",
          "type": "address"
        },
        {
          "internalType": "uint256",
          "name": "index",
          "type": "uint256"
        }
      ],
      "name": "tokenOfOwnerByIndex",
      "outputs": [
        {
          "internalType": "uint256",
          "name": "",
          "type": "uint256"
        }
      ],
      "stateMutability": "view",
      "type": "function"
    },
    {
      "inputs": [
        {
          "internalType": "uint256",
          "name": "tokenId",
          "type": "uint256"
        }
      ],
      "name": "tokenURI",
      "outputs": [
        {
          "internalType": "string",
          "name": "",
          "type": "string"
        }
      ],
      "stateMutability": "view",
      "type": "function"
    },
    {
      "inputs": [],
      "name": "totalSupply",
      "outputs": [
        {
          "internalType": "uint256",
          "name": "",
          "type": "uint256"
        }
      ],
      "stateMutability": "view",
      "type": "function"
    },
    {
      "inputs": [
        {
          "internalType": "address",
          "name": "from",
          "type": "address"
        },
        {
          "internalType": "address",
          "name": "to",
          "type": "address"
        },
        {
          "internalType": "uint256",
          "name": "tokenId",
          "type": "uint256"
        }
      ],
      "name": "transferFrom",
      "outputs": [],
      "stateMutability": "nonpayable",
      "type": "function"
    },
    {
      "inputs": [
        {
          "internalType": "address",
          "name": "newOwner",
          "type": "address"
        }
      ],
      "name": "transferOwnership",
      "outputs": [],
      "stateMutability": "nonpayable",
      "type": "function"
    },
    {
      "inputs": [
        {
          "internalType": "uint256",
          "name": "certId",
          "type": "uint256"
        }
      ],
      "name": "verifyCertificate",
      "outputs": [],
      "stateMutability": "nonpayable",
      "type": "function"
    }
  ],
  "bytecode": "0x60806040523480156200001157600080fd5b506040518060400160405280601481526020017f56657269666965642043657274696669636174650000000000000000000000008152506040518060400160405280600381526020017f565243000000000000000000000000000000000000000000000000000000000081525081600090805190602001906200009692919062000209565b508060019080519060200190620000af92919062000209565b505050620000d2620000c66200013b60201b60201c565b6200014360201b60201c565b600e339080600181540180825580915050600190039060005260206000200160009091909190916101000a81548173ffffffffffffffffffffffffffffffffffffffff021916908373ffffffffffffffffffffffffffffffffffffffff1602179055506200031e565b600033905090565b6000600b60009054906101000a900473ffffffffffffffffffffffffffffffffffffffff16905081600b60006101000a81548173ffffffffffffffffffffffffffffffffffffffff021916908373ffffffffffffffffffffffffffffffffffffffff1602179055508173ffffffffffffffffffffffffffffffffffffffff168173ffffffffffffffffffffffffffffffffffffffff167f8be0079c531659141344cd1fd0a4f28419497f9722a3daafe3b4186f6b6457e060405160405180910390a35050565b8280546200021790620002b9565b90600052602060002090601f0160209004810192826200023b576000855562000287565b82601f106200025657805160ff191683800117855562000287565b8280016001018555821562000287579182015b828111156200028657825182559160200191906001019062000269565b5b5090506200029691906200029a565b5090565b5b80821115620002b55760008160009055506001016200029b565b5090565b60006002820490506001821680620002d257607f821691505b60208210811415620002e957620002e8620002ef565b5b50919050565b7f4e487b7100000000000000000000000000000000000000000000000000000000600052602260045260246000fd5b6141a9806200032e6000396000f3fe608060405234801561001057600080fd5b50600436106101585760003560e01c80636352211e116100c3578063b88d4fde1161007c578063b88d4fde146103c5578063c87b56dd146103e1578063d85d3d2714610411578063e985e9c514610441578063edd4ea9a14610471578063f2fde38b1461048f57610158565b80636352211e1461030357806370a0823114610333578063715018a6146103635780638da5cb5b1461036d57806395d89b411461038b578063a22cb465146103a957610158565b806318160ddd1161011557806318160ddd146102315780631eac03ae1461024f57806323b872dd1461026b5780632f745c591461028757806342842e0e146102b75780634f6ccce7146102d357610158565b806301ffc9a71461015d57806306fdde031461018d578063081812fc146101ab578063095ea7b3146101db5780630975ee6f146101f75780631692a94214610215575b600080fd5b61017760048036038101906101729190612e3f565b6104ab565b60405161018491906134fe565b60405180910390f35b6101956104bd565b6040516101a29190613519565b60405180910390f35b6101c560048036038101906101c09190612ed2565b61054f565b6040516101d29190613453565b60405180910390f35b6101f560048036038101906101f09190612e03565b610595565b005b6101ff6106ad565b60405161020c91906134dc565b60405180910390f35b61022f600480360381019061022a9190612ed2565b6108b2565b005b610239610b57565b604051610246919061379b565b60405180910390f35b61026960048036038101906102649190612c98565b610b64565b005b61028560048036038101906102809190612cfd565b610cd1565b005b6102a1600480360381019061029c9190612e03565b610d31565b6040516102ae919061379b565b60405180910390f35b6102d160048036038101906102cc9190612cfd565b610dd6565b005b6102ed60048036038101906102e89190612ed2565b610df6565b6040516102fa919061379b565b60405180910390f35b61031d60048036038101906103189190612ed2565b610e8d565b60405161032a9190613453565b60405180910390f35b61034d60048036038101906103489190612c98565b610f3f565b60405161035a919061379b565b60405180910390f35b61036b610ff7565b005b61037561100b565b6040516103829190613453565b60405180910390f35b610393611035565b6040516103a09190613519565b60405180910390f35b6103c360048036038101906103be9190612dc7565b6110c7565b005b6103df60048036038101906103da9190612d4c565b6110dd565b005b6103fb60048036038101906103f69190612ed2565b61113f565b6040516104089190613519565b60405180910390f35b61042b60048036038101906104269190612e91565b611151565b604051610438919061379b565b60405180910390f35b61045b60048036038101906104569190612cc1565b611284565b60405161046891906134fe565b60405180910390f35b610479611318565b60405161048691906134ba565b60405180910390f35b6104a960048036038101906104a49190612c98565b6113a6565b005b60006104b68261142a565b9050919050565b6060600080546104cc90613a74565b80601f01602080910402602001604051908101604052809291908181526020018280546104f890613a74565b80156105455780601f1061051a57610100808354040283529160200191610545565b820191906000526020600020905b81548152906001019060200180831161052857829003601f168201915b5050505050905090565b600061055a826114a4565b6004600083815260200190815260200160002060009054906101000a900473ffffffffffffffffffffffffffffffffffffffff169050919050565b60006105a082610e8d565b90508073ffffffffffffffffffffffffffffffffffffffff168373ffffffffffffffffffffffffffffffffffffffff161415610611576040517f08c379a00000000000000000000000000000000000000000000000000000000081526004016106089061371b565b60405180910390fd5b8073ffffffffffffffffffffffffffffffffffffffff166106306114ef565b73ffffffffffffffffffffffffffffffffffffffff16148061065f575061065e816106596114ef565b611284565b5b61069e576040517f08c379a00000000000000000000000000000000000000000000000000000000081526004016106959061369b565b60405180910390fd5b6106a883836114f7565b505050565b606060006106bb600c6115b0565b905060008167ffffffffffffffff8111156106ff577f4e487b7100000000000000000000000000000000000000000000000000000000600052604160045260246000fd5b60405190808252806020026020018201604052801561073857816020015b6107256129fb565b81526020019060019003908161071d5790505b50905060005b828110156108a957600d6000828152602001908152602001600020604051806060016040529081600082015481526020016001820160009054906101000a900473ffffffffffffffffffffffffffffffffffffffff1673ffffffffffffffffffffffffffffffffffffffff1673ffffffffffffffffffffffffffffffffffffffff1681526020016002820180548060200260200160405190810160405280929190818152602001828054801561084957602002820191906000526020600020905b8160009054906101000a900473ffffffffffffffffffffffffffffffffffffffff1673ffffffffffffffffffffffffffffffffffffffff16815260200190600101908083116107ff575b50505050508152505082828151811061088b577f4e487b7100000000000000000000000000000000000000000000000000000000600052603260045260246000fd5b602002602001018190525080806108a190613ad7565b91505061073e565b50809250505090565b6000805b600e80549050811015610977573373ffffffffffffffffffffffffffffffffffffffff16600e8281548110610914577f4e487b7100000000000000000000000000000000000000000000000000000000600052603260045260246000fd5b9060005260206000200160009054906101000a900473ffffffffffffffffffffffffffffffffffffffff1673ffffffffffffffffffffffffffffffffffffffff1614156109645760019150610977565b808061096f90613ad7565b9150506108b6565b50806109b8576040517f08c379a00000000000000000000000000000000000000000000000000000000081526004016109af9061373b565b60405180910390fd5b6000600d600084815260200190815260200160002090506000805b8260020180549050811015610a98573373ffffffffffffffffffffffffffffffffffffffff16836002018281548110610a35577f4e487b7100000000000000000000000000000000000000000000000000000000600052603260045260246000fd5b9060005260206000200160009054906101000a900473ffffffffffffffffffffffffffffffffffffffff1673ffffffffffffffffffffffffffffffffffffffff161415610a855760019150610a98565b8080610a9090613ad7565b9150506109d3565b508015610ada576040517f08c379a0000000000000000000000000000000000000000000000000000000008152600401610ad19061355b565b60405180910390fd5b600d6000858152602001908152602001600020600201339080600181540180825580915050600190039060005260206000200160009091909190916101000a81548173ffffffffffffffffffffffffffffffffffffffff021916908373ffffffffffffffffffffffffffffffffffffffff16021790555050505050565b6000600880549050905090565b6000805b600e80549050811015610c29573373ffffffffffffffffffffffffffffffffffffffff16600e8281548110610bc6577f4e487b7100000000000000000000000000000000000000000000000000000000600052603260045260246000fd5b9060005260206000200160009054906101000a900473ffffffffffffffffffffffffffffffffffffffff1673ffffffffffffffffffffffffffffffffffffffff161415610c165760019150610c29565b8080610c2190613ad7565b915050610b68565b5080610c6a576040517f08c379a0000000000000000000000000000000000000000000000000000000008152600401610c619061373b565b60405180910390fd5b600e829080600181540180825580915050600190039060005260206000200160009091909190916101000a81548173ffffffffffffffffffffffffffffffffffffffff021916908373ffffffffffffffffffffffffffffffffffffffff1602179055505050565b610ce2610cdc6114ef565b826115be565b610d21576040517f08c379a0000000000000000000000000000000000000000000000000000000008152600401610d189061377b565b60405180910390fd5b610d2c838383611653565b505050565b6000610d3c83610f3f565b8210610d7d576040517f08c379a0000000000000000000000000000000000000000000000000000000008152600401610d749061357b565b60405180910390fd5b600660008473ffffffffffffffffffffffffffffffffffffffff1673ffffffffffffffffffffffffffffffffffffffff168152602001908152602001600020600083815260200190815260200160002054905092915050565b610df1838383604051806020016040528060008152506110dd565b505050565b6000610e00610b57565b8210610e41576040517f08c379a0000000000000000000000000000000000000000000000000000000008152600401610e389061375b565b60405180910390fd5b60088281548110610e7b577f4e487b7100000000000000000000000000000000000000000000000000000000600052603260045260246000fd5b90600052602060002001549050919050565b6000806002600084815260200190815260200160002060009054906101000a900473ffffffffffffffffffffffffffffffffffffffff169050600073ffffffffffffffffffffffffffffffffffffffff168173ffffffffffffffffffffffffffffffffffffffff161415610f36576040517f08c379a0000000000000000000000000000000000000000000000000000000008152600401610f2d906136fb565b60405180910390fd5b80915050919050565b60008073ffffffffffffffffffffffffffffffffffffffff168273ffffffffffffffffffffffffffffffffffffffff161415610fb0576040517f08c379a0000000000000000000000000000000000000000000000000000000008152600401610fa79061365b565b60405180910390fd5b600360008373ffffffffffffffffffffffffffffffffffffffff1673ffffffffffffffffffffffffffffffffffffffff168152602001908152602001600020549050919050565b610fff6118ba565b6110096000611938565b565b6000600b60009054906101000a900473ffffffffffffffffffffffffffffffffffffffff16905090565b60606001805461104490613a74565b80601f016020809104026020016040519081016040528092919081815260200182805461107090613a74565b80156110bd5780601f10611092576101008083540402835291602001916110bd565b820191906000526020600020905b8154815290600101906020018083116110a057829003601f168201915b5050505050905090565b6110d96110d26114ef565b83836119fe565b5050565b6110ee6110e86114ef565b836115be565b61112d576040517f08c379a00000000000000000000000000000000000000000000000000000000081526004016111249061377b565b60405180910390fd5b61113984848484611b6b565b50505050565b606061114a82611bc7565b9050919050565b60006007825111611197576040517f08c379a000000000000000000000000000000000000000000000000000000000815260040161118e9061353b565b60405180910390fd5b60006111a3600c6115b0565b90506111af3382611cda565b6111b98184611cf8565b606060405180606001604052808381526020013373ffffffffffffffffffffffffffffffffffffffff16815260200182815250600d60008481526020019081526020016000206000820151816000015560208201518160010160006101000a81548173ffffffffffffffffffffffffffffffffffffffff021916908373ffffffffffffffffffffffffffffffffffffffff160217905550604082015181600201908051906020019061126c929190612a32565b5090505061127a600c611d6c565b8192505050919050565b6000600560008473ffffffffffffffffffffffffffffffffffffffff1673ffffffffffffffffffffffffffffffffffffffff16815260200190815260200160002060008373ffffffffffffffffffffffffffffffffffffffff1673ffffffffffffffffffffffffffffffffffffffff16815260200190815260200160002060009054906101000a900460ff16905092915050565b6060600e80548060200260200160405190810160405280929190818152602001828054801561139c57602002820191906000526020600020905b8160009054906101000a900473ffffffffffffffffffffffffffffffffffffffff1673ffffffffffffffffffffffffffffffffffffffff1681526020019060010190808311611352575b5050505050905090565b6113ae6118ba565b600073ffffffffffffffffffffffffffffffffffffffff168173ffffffffffffffffffffffffffffffffffffffff16141561141e576040517f08c379a0000000000000000000000000000000000000000000000000000000008152600401611415906135bb565b60405180910390fd5b61142781611938565b50565b60007f780e9d63000000000000000000000000000000000000000000000000000000007bffffffffffffffffffffffffffffffffffffffffffffffffffffffff1916827bffffffffffffffffffffffffffffffffffffffffffffffffffffffff1916148061149d575061149c82611d82565b5b9050919050565b6114ad81611e64565b6114ec576040517f08c379a00000000000000000000000000000000000000000000000000000000081526004016114e3906136fb565b60405180910390fd5b50565b600033905090565b816004600083815260200190815260200160002060006101000a81548173ffffffffffffffffffffffffffffffffffffffff021916908373ffffffffffffffffffffffffffffffffffffffff160217905550808273ffffffffffffffffffffffffffffffffffffffff1661156a83610e8d565b73ffffffffffffffffffffffffffffffffffffffff167f8c5be1e5ebec7d5bd14f71427d1e84f3dd0314c0f7b2291e5b200ac8c7c3b92560405160405180910390a45050565b600081600001549050919050565b6000806115ca83610e8d565b90508073ffffffffffffffffffffffffffffffffffffffff168473ffffffffffffffffffffffffffffffffffffffff16148061160c575061160b8185611284565b5b8061164a57508373ffffffffffffffffffffffffffffffffffffffff166116328461054f565b73ffffffffffffffffffffffffffffffffffffffff16145b91505092915050565b8273ffffffffffffffffffffffffffffffffffffffff1661167382610e8d565b73ffffffffffffffffffffffffffffffffffffffff16146116c9576040517f08c379a00000000000000000000000000000000000000000000000000000000081526004016116c0906135db565b60405180910390fd5b600073ffffffffffffffffffffffffffffffffffffffff168273ffffffffffffffffffffffffffffffffffffffff161415611739576040517f08c379a00000000000000000000000000000000000000000000000000000000081526004016117309061361b565b60405180910390fd5b611744838383611ed0565b61174f6000826114f7565b6001600360008573ffffffffffffffffffffffffffffffffffffffff1673ffffffffffffffffffffffffffffffffffffffff168152602001908152602001600020600082825461179f919061398a565b925050819055506001600360008473ffffffffffffffffffffffffffffffffffffffff1673ffffffffffffffffffffffffffffffffffffffff16815260200190815260200160002060008282546117f69190613903565b92505081905550816002600083815260200190815260200160002060006101000a81548173ffffffffffffffffffffffffffffffffffffffff021916908373ffffffffffffffffffffffffffffffffffffffff160217905550808273ffffffffffffffffffffffffffffffffffffffff168473ffffffffffffffffffffffffffffffffffffffff167fddf252ad1be2c89b69c2b068fc378daa952ba7f163c4a11628f55a4df523b3ef60405160405180910390a46118b5838383611ee0565b505050565b6118c26114ef565b73ffffffffffffffffffffffffffffffffffffffff166118e061100b565b73ffffffffffffffffffffffffffffffffffffffff1614611936576040517f08c379a000000000000000000000000000000000000000000000000000000000815260040161192d906136db565b60405180910390fd5b565b6000600b60009054906101000a900473ffffffffffffffffffffffffffffffffffffffff16905081600b60006101000a81548173ffffffffffffffffffffffffffffffffffffffff021916908373ffffffffffffffffffffffffffffffffffffffff1602179055508173ffffffffffffffffffffffffffffffffffffffff168173ffffffffffffffffffffffffffffffffffffffff167f8be0079c531659141344cd1fd0a4f28419497f9722a3daafe3b4186f6b6457e060405160405180910390a35050565b8173ffffffffffffffffffffffffffffffffffffffff168373ffffffffffffffffffffffffffffffffffffffff161415611a6d576040517f08c379a0000000000000000000000000000000000000000000000000000000008152600401611a649061363b565b60405180910390fd5b80600560008573ffffffffffffffffffffffffffffffffffffffff1673ffffffffffffffffffffffffffffffffffffffff16815260200190815260200160002060008473ffffffffffffffffffffffffffffffffffffffff1673ffffffffffffffffffffffffffffffffffffffff16815260200190815260200160002060006101000a81548160ff0219169083151502179055508173ffffffffffffffffffffffffffffffffffffffff168373ffffffffffffffffffffffffffffffffffffffff167f17307eab39ab6107e8899845ad3d59bd9653f200f220920489ca2b5937696c3183604051611b5e91906134fe565b60405180910390a3505050565b611b76848484611653565b611b8284848484611ee5565b611bc1576040517f08c379a0000000000000000000000000000000000000000000000000000000008152600401611bb89061359b565b60405180910390fd5b50505050565b6060611bd2826114a4565b6000600a60008481526020019081526020016000208054611bf290613a74565b80601f0160208091040260200160405190810160405280929190818152602001828054611c1e90613a74565b8015611c6b5780601f10611c4057610100808354040283529160200191611c6b565b820191906000526020600020905b815481529060010190602001808311611c4e57829003601f168201915b505050505090506000611c7c61207c565b9050600081511415611c92578192505050611cd5565b600082511115611cc7578082604051602001611caf92919061342f565b60405160208183030381529060405292505050611cd5565b611cd084612093565b925050505b919050565b611cf48282604051806020016040528060008152506120fb565b5050565b611d0182611e64565b611d40576040517f08c379a0000000000000000000000000000000000000000000000000000000008152600401611d379061367b565b60405180910390fd5b80600a60008481526020019081526020016000209080519060200190611d67929190612abc565b505050565b6001816000016000828254019250508190555050565b60007f80ac58cd000000000000000000000000000000000000000000000000000000007bffffffffffffffffffffffffffffffffffffffffffffffffffffffff1916827bffffffffffffffffffffffffffffffffffffffffffffffffffffffff19161480611e4d57507f5b5e139f000000000000000000000000000000000000000000000000000000007bffffffffffffffffffffffffffffffffffffffffffffffffffffffff1916827bffffffffffffffffffffffffffffffffffffffffffffffffffffffff1916145b80611e5d5750611e5c82612156565b5b9050919050565b60008073ffffffffffffffffffffffffffffffffffffffff166002600084815260200190815260200160002060009054906101000a900473ffffffffffffffffffffffffffffffffffffffff1673ffffffffffffffffffffffffffffffffffffffff1614159050919050565b611edb8383836121c0565b505050565b505050565b6000611f068473ffffffffffffffffffffffffffffffffffffffff166122d4565b1561206f578373ffffffffffffffffffffffffffffffffffffffff1663150b7a02611f2f6114ef565b8786866040518563ffffffff1660e01b8152600401611f51949392919061346e565b602060405180830381600087803b158015611f6b57600080fd5b505af1925050508015611f9c57506040513d601f19601f82011682018060405250810190611f999190612e68565b60015b61201f573d8060008114611fcc576040519150601f19603f3d011682016040523d82523d6000602084013e611fd1565b606091505b50600081511415612017576040517f08c379a000000000000000000000000000000000000000000000000000000000815260040161200e9061359b565b60405180910390fd5b805181602001fd5b63150b7a0260e01b7bffffffffffffffffffffffffffffffffffffffffffffffffffffffff1916817bffffffffffffffffffffffffffffffffffffffffffffffffffffffff191614915050612074565b600190505b949350505050565b606060405180602001604052806000815250905090565b606061209e826114a4565b60006120a861207c565b905060008151116120c857604051806020016040528060008152506120f3565b806120d2846122f7565b6040516020016120e392919061342f565b6040516020818303038152906040525b915050919050565b61210583836124a4565b6121126000848484611ee5565b612151576040517f08c379a00000000000000000000000000000000000000000000000000000000081526004016121489061359b565b60405180910390fd5b505050565b60007f01ffc9a7000000000000000000000000000000000000000000000000000000007bffffffffffffffffffffffffffffffffffffffffffffffffffffffff1916827bffffffffffffffffffffffffffffffffffffffffffffffffffffffff1916149050919050565b6121cb83838361267e565b600073ffffffffffffffffffffffffffffffffffffffff168373ffffffffffffffffffffffffffffffffffffffff16141561220e5761220981612683565b61224d565b8173ffffffffffffffffffffffffffffffffffffffff168373ffffffffffffffffffffffffffffffffffffffff161461224c5761224b83826126cc565b5b5b600073ffffffffffffffffffffffffffffffffffffffff168273ffffffffffffffffffffffffffffffffffffffff1614156122905761228b81612839565b6122cf565b8273ffffffffffffffffffffffffffffffffffffffff168273ffffffffffffffffffffffffffffffffffffffff16146122ce576122cd828261297c565b5b5b505050565b6000808273ffffffffffffffffffffffffffffffffffffffff163b119050919050565b6060600082141561233f576040518060400160405280600181526020017f3000000000000000000000000000000000000000000000000000000000000000815250905061249f565b600082905060005b6000821461237157808061235a90613ad7565b915050600a8261236a9190613959565b9150612347565b60008167ffffffffffffffff8111156123b3577f4e487b7100000000000000000000000000000000000000000000000000000000600052604160045260246000fd5b6040519080825280601f01601f1916602001820160405280156123e55781602001600182028036833780820191505090505b5090505b60008514612498576001826123fe919061398a565b9150600a8561240d9190613b20565b60306124199190613903565b60f81b818381518110612455577f4e487b7100000000000000000000000000000000000000000000000000000000600052603260045260246000fd5b60200101907effffffffffffffffffffffffffffffffffffffffffffffffffffffffffffff1916908160001a905350600a856124919190613959565b94506123e9565b8093505050505b919050565b600073ffffffffffffffffffffffffffffffffffffffff168273ffffffffffffffffffffffffffffffffffffffff161415612514576040517f08c379a000000000000000000000000000000000000000000000000000000000815260040161250b906136bb565b60405180910390fd5b61251d81611e64565b1561255d576040517f08c379a0000000000000000000000000000000000000000000000000000000008152600401612554906135fb565b60405180910390fd5b61256960008383611ed0565b6001600360008473ffffffffffffffffffffffffffffffffffffffff1673ffffffffffffffffffffffffffffffffffffffff16815260200190815260200160002060008282546125b99190613903565b92505081905550816002600083815260200190815260200160002060006101000a81548173ffffffffffffffffffffffffffffffffffffffff021916908373ffffffffffffffffffffffffffffffffffffffff160217905550808273ffffffffffffffffffffffffffffffffffffffff16600073ffffffffffffffffffffffffffffffffffffffff167fddf252ad1be2c89b69c2b068fc378daa952ba7f163c4a11628f55a4df523b3ef60405160405180910390a461267a60008383611ee0565b5050565b505050565b6008805490506009600083815260200190815260200160002081905550600881908060018154018082558091505060019003906000526020600020016000909190919091505550565b600060016126d984610f3f565b6126e3919061398a565b90506000600760008481526020019081526020016000205490508181146127c8576000600660008673ffffffffffffffffffffffffffffffffffffffff1673ffffffffffffffffffffffffffffffffffffffff168152602001908152602001600020600084815260200190815260200160002054905080600660008773ffffffffffffffffffffffffffffffffffffffff1673ffffffffffffffffffffffffffffffffffffffff168152602001908152602001600020600084815260200190815260200160002081905550816007600083815260200190815260200160002081905550505b6007600084815260200190815260200160002060009055600660008573ffffffffffffffffffffffffffffffffffffffff1673ffffffffffffffffffffffffffffffffffffffff16815260200190815260200160002060008381526020019081526020016000206000905550505050565b6000600160088054905061284d919061398a565b90506000600960008481526020019081526020016000205490506000600883815481106128a3577f4e487b7100000000000000000000000000000000000000000000000000000000600052603260045260246000fd5b9060005260206000200154905080600883815481106128eb577f4e487b7100000000000000000000000000000000000000000000000000000000600052603260045260246000fd5b906000526020600020018190555081600960008381526020019081526020016000208190555060096000858152602001908152602001600020600090556008805480612960577f4e487b7100000000000000000000000000000000000000000000000000000000600052603160045260246000fd5b6001900381819060005260206000200160009055905550505050565b600061298783610f3f565b905081600660008573ffffffffffffffffffffffffffffffffffffffff1673ffffffffffffffffffffffffffffffffffffffff168152602001908152602001600020600083815260200190815260200160002081905550806007600084815260200190815260200160002081905550505050565b604051806060016040528060008152602001600073ffffffffffffffffffffffffffffffffffffffff168152602001606081525090565b828054828255906000526020600020908101928215612aab579160200282015b82811115612aaa5782518260006101000a81548173ffffffffffffffffffffffffffffffffffffffff021916908373ffffffffffffffffffffffffffffffffffffffff16021790555091602001919060010190612a52565b5b509050612ab89190612b42565b5090565b828054612ac890613a74565b90600052602060002090601f016020900481019282612aea5760008555612b31565b82601f10612b0357805160ff1916838001178555612b31565b82800160010185558215612b31579182015b82811115612b30578251825591602001919060010190612b15565b5b509050612b3e9190612b42565b5090565b5b80821115612b5b576000816000905550600101612b43565b5090565b6000612b72612b6d846137db565b6137b6565b905082815260208101848484011115612b8a57600080fd5b612b95848285613a32565b509392505050565b6000612bb0612bab8461380c565b6137b6565b905082815260208101848484011115612bc857600080fd5b612bd3848285613a32565b509392505050565b600081359050612bea81614117565b92915050565b600081359050612bff8161412e565b92915050565b600081359050612c1481614145565b92915050565b600081519050612c2981614145565b92915050565b600082601f830112612c4057600080fd5b8135612c50848260208601612b5f565b91505092915050565b600082601f830112612c6a57600080fd5b8135612c7a848260208601612b9d565b91505092915050565b600081359050612c928161415c565b92915050565b600060208284031215612caa57600080fd5b6000612cb884828501612bdb565b91505092915050565b60008060408385031215612cd457600080fd5b6000612ce285828601612bdb565b9250506020612cf385828601612bdb565b9150509250929050565b600080600060608486031215612d1257600080fd5b6000612d2086828701612bdb565b9350506020612d3186828701612bdb565b9250506040612d4286828701612c83565b9150509250925092565b60008060008060808587031215612d6257600080fd5b6000612d7087828801612bdb565b9450506020612d8187828801612bdb565b9350506040612d9287828801612c83565b925050606085013567ffffffffffffffff811115612daf57600080fd5b612dbb87828801612c2f565b91505092959194509250565b60008060408385031215612dda57600080fd5b6000612de885828601612bdb565b9250506020612df985828601612bf0565b9150509250929050565b60008060408385031215612e1657600080fd5b6000612e2485828601612bdb565b9250506020612e3585828601612c83565b9150509250929050565b600060208284031215612e5157600080fd5b6000612e5f84828501612c05565b91505092915050565b600060208284031215612e7a57600080fd5b6000612e8884828501612c1a565b91505092915050565b600060208284031215612ea357600080fd5b600082013567ffffffffffffffff811115612ebd57600080fd5b612ec984828501612c59565b91505092915050565b600060208284031215612ee457600080fd5b6000612ef284828501612c83565b91505092915050565b6000612f078383612f27565b60208301905092915050565b6000612f1f83836133c1565b905092915050565b612f30816139be565b82525050565b612f3f816139be565b82525050565b6000612f508261385d565b612f5a81856138a3565b9350612f658361383d565b8060005b83811015612f96578151612f7d8882612efb565b9750612f8883613889565b925050600181019050612f69565b5085935050505092915050565b6000612fae8261385d565b612fb881856138b4565b9350612fc38361383d565b8060005b83811015612ff4578151612fdb8882612efb565b9750612fe683613889565b925050600181019050612fc7565b5085935050505092915050565b600061300c82613868565b61301681856138c5565b9350836020820285016130288561384d565b8060005b8581101561306457848403895281516130458582612f13565b945061305083613896565b925060208a0199505060018101905061302c565b50829750879550505050505092915050565b61307f816139d0565b82525050565b600061309082613873565b61309a81856138d6565b93506130aa818560208601613a41565b6130b381613c0d565b840191505092915050565b60006130c98261387e565b6130d381856138e7565b93506130e3818560208601613a41565b6130ec81613c0d565b840191505092915050565b60006131028261387e565b61310c81856138f8565b935061311c818560208601613a41565b80840191505092915050565b60006131356017836138e7565b915061314082613c1e565b602082019050919050565b6000613158602f836138e7565b915061316382613c47565b604082019050919050565b600061317b602b836138e7565b915061318682613c96565b604082019050919050565b600061319e6032836138e7565b91506131a982613ce5565b604082019050919050565b60006131c16026836138e7565b91506131cc82613d34565b604082019050919050565b60006131e46025836138e7565b91506131ef82613d83565b604082019050919050565b6000613207601c836138e7565b915061321282613dd2565b602082019050919050565b600061322a6024836138e7565b915061323582613dfb565b604082019050919050565b600061324d6019836138e7565b915061325882613e4a565b602082019050919050565b60006132706029836138e7565b915061327b82613e73565b604082019050919050565b6000613293602e836138e7565b915061329e82613ec2565b604082019050919050565b60006132b6603e836138e7565b91506132c182613f11565b604082019050919050565b60006132d96020836138e7565b91506132e482613f60565b602082019050919050565b60006132fc6020836138e7565b915061330782613f89565b602082019050919050565b600061331f6018836138e7565b915061332a82613fb2565b602082019050919050565b60006133426021836138e7565b915061334d82613fdb565b604082019050919050565b60006133656030836138e7565b91506133708261402a565b604082019050919050565b6000613388602c836138e7565b915061339382614079565b604082019050919050565b60006133ab602e836138e7565b91506133b6826140c8565b604082019050919050565b60006060830160008301516133d96000860182613411565b5060208301516133ec6020860182612f27565b50604083015184820360408601526134048282612f45565b9150508091505092915050565b61341a81613a28565b82525050565b61342981613a28565b82525050565b600061343b82856130f7565b915061344782846130f7565b91508190509392505050565b60006020820190506134686000830184612f36565b92915050565b60006080820190506134836000830187612f36565b6134906020830186612f36565b61349d6040830185613420565b81810360608301526134af8184613085565b905095945050505050565b600060208201905081810360008301526134d48184612fa3565b905092915050565b600060208201905081810360008301526134f68184613001565b905092915050565b60006020820190506135136000830184613076565b92915050565b6000602082019050818103600083015261353381846130be565b905092915050565b6000602082019050818103600083015261355481613128565b9050919050565b600060208201905081810360008301526135748161314b565b9050919050565b600060208201905081810360008301526135948161316e565b9050919050565b600060208201905081810360008301526135b481613191565b9050919050565b600060208201905081810360008301526135d4816131b4565b9050919050565b600060208201905081810360008301526135f4816131d7565b9050919050565b60006020820190508181036000830152613614816131fa565b9050919050565b600060208201905081810360008301526136348161321d565b9050919050565b6000602082019050818103600083015261365481613240565b9050919050565b6000602082019050818103600083015261367481613263565b9050919050565b6000602082019050818103600083015261369481613286565b9050919050565b600060208201905081810360008301526136b4816132a9565b9050919050565b600060208201905081810360008301526136d4816132cc565b9050919050565b600060208201905081810360008301526136f4816132ef565b9050919050565b6000602082019050818103600083015261371481613312565b9050919050565b6000602082019050818103600083015261373481613335565b9050919050565b6000602082019050818103600083015261375481613358565b9050919050565b600060208201905081810360008301526137748161337b565b9050919050565b600060208201905081810360008301526137948161339e565b9050919050565b60006020820190506137b06000830184613420565b92915050565b60006137c06137d1565b90506137cc8282613aa6565b919050565b6000604051905090565b600067ffffffffffffffff8211156137f6576137f5613bde565b5b6137ff82613c0d565b9050602081019050919050565b600067ffffffffffffffff82111561382757613826613bde565b5b61383082613c0d565b9050602081019050919050565b6000819050602082019050919050565b6000819050602082019050919050565b600081519050919050565b600081519050919050565b600081519050919050565b600081519050919050565b6000602082019050919050565b6000602082019050919050565b600082825260208201905092915050565b600082825260208201905092915050565b600082825260208201905092915050565b600082825260208201905092915050565b600082825260208201905092915050565b600081905092915050565b600061390e82613a28565b915061391983613a28565b9250827fffffffffffffffffffffffffffffffffffffffffffffffffffffffffffffffff0382111561394e5761394d613b51565b5b828201905092915050565b600061396482613a28565b915061396f83613a28565b92508261397f5761397e613b80565b5b828204905092915050565b600061399582613a28565b91506139a083613a28565b9250828210156139b3576139b2613b51565b5b828203905092915050565b60006139c982613a08565b9050919050565b60008115159050919050565b60007fffffffff0000000000000000000000000000000000000000000000000000000082169050919050565b600073ffffffffffffffffffffffffffffffffffffffff82169050919050565b6000819050919050565b82818337600083830152505050565b60005b83811015613a5f578082015181840152602081019050613a44565b83811115613a6e576000848401525b50505050565b60006002820490506001821680613a8c57607f821691505b60208210811415613aa057613a9f613baf565b5b50919050565b613aaf82613c0d565b810181811067ffffffffffffffff82111715613ace57613acd613bde565b5b80604052505050565b6000613ae282613a28565b91507fffffffffffffffffffffffffffffffffffffffffffffffffffffffffffffffff821415613b1557613b14613b51565b5b600182019050919050565b6000613b2b82613a28565b9150613b3683613a28565b925082613b4657613b45613b80565b5b828206905092915050565b7f4e487b7100000000000000000000000000000000000000000000000000000000600052601160045260246000fd5b7f4e487b7100000000000000000000000000000000000000000000000000000000600052601260045260246000fd5b7f4e487b7100000000000000000000000000000000000000000000000000000000600052602260045260246000fd5b7f4e487b7100000000000000000000000000000000000000000000000000000000600052604160045260246000fd5b6000601f19601f8301169050919050565b7f456e74657220612076616c696420746f6b656e20757269000000000000000000600082015250565b7f596f752063616e27742076616c6964617465206120636572746966696361746560008201527f206d6f7265207468616e206f6e63650000000000000000000000000000000000602082015250565b7f455243373231456e756d657261626c653a206f776e657220696e646578206f7560008201527f74206f6620626f756e6473000000000000000000000000000000000000000000602082015250565b7f4552433732313a207472616e7366657220746f206e6f6e20455243373231526560008201527f63656976657220696d706c656d656e7465720000000000000000000000000000602082015250565b7f4f776e61626c653a206e6577206f776e657220697320746865207a65726f206160008201527f6464726573730000000000000000000000000000000000000000000000000000602082015250565b7f4552433732313a207472616e736665722066726f6d20696e636f72726563742060008201527f6f776e6572000000000000000000000000000000000000000000000000000000602082015250565b7f4552433732313a20746f6b656e20616c7265616479206d696e74656400000000600082015250565b7f4552433732313a207472616e7366657220746f20746865207a65726f2061646460008201527f7265737300000000000000000000000000000000000000000000000000000000602082015250565b7f4552433732313a20617070726f766520746f2063616c6c657200000000000000600082015250565b7f4552433732313a2061646472657373207a65726f206973206e6f74206120766160008201527f6c6964206f776e65720000000000000000000000000000000000000000000000602082015250565b7f45524337323155524953746f726167653a2055524920736574206f66206e6f6e60008201527f6578697374656e7420746f6b656e000000000000000000000000000000000000602082015250565b7f4552433732313a20617070726f76652063616c6c6572206973206e6f7420746f60008201527f6b656e206f776e6572206e6f7220617070726f76656420666f7220616c6c0000602082015250565b7f4552433732313a206d696e7420746f20746865207a65726f2061646472657373600082015250565b7f4f776e61626c653a2063616c6c6572206973206e6f7420746865206f776e6572600082015250565b7f4552433732313a20696e76616c696420746f6b656e2049440000000000000000600082015250565b7f4552433732313a20617070726f76616c20746f2063757272656e74206f776e6560008201527f7200000000000000000000000000000000000000000000000000000000000000602082015250565b7f4f6e6c7920626f617264206d656d6265727320616c6c6f77656420746f20636160008201527f6c6c20746869732066756e6374696f6e00000000000000000000000000000000602082015250565b7f455243373231456e756d657261626c653a20676c6f62616c20696e646578206f60008201527f7574206f6620626f756e64730000000000000000000000000000000000000000602082015250565b7f4552433732313a2063616c6c6572206973206e6f7420746f6b656e206f776e6560008201527f72206e6f7220617070726f766564000000000000000000000000000000000000602082015250565b614120816139be565b811461412b57600080fd5b50565b614137816139d0565b811461414257600080fd5b50565b61414e816139dc565b811461415957600080fd5b50565b61416581613a28565b811461417057600080fd5b5056fea264697066735822122004a15d739fb1a2e1b9ec811b1113d062b7af965bf4dad649623a791b47e384fd64736f6c63430008040033",
  "linkReferences": {},
  "deployedLinkReferences": {}
}